{
  "contractName": "barterMarket",
  "abi": [
    {
      "inputs": [],
      "payable": false,
      "stateMutability": "nonpayable",
      "type": "constructor"
    },
    {
      "anonymous": false,
      "inputs": [
        {
          "indexed": true,
          "name": "newOwnerAddress",
          "type": "address"
        },
        {
          "indexed": false,
          "name": "newProductName",
          "type": "string"
        },
        {
          "indexed": true,
          "name": "newProductOwner",
          "type": "address"
        },
        {
          "indexed": false,
          "name": "newProductNumber",
          "type": "uint256"
        }
      ],
      "name": "newProduct",
      "type": "event"
    },
    {
      "anonymous": false,
      "inputs": [
        {
          "indexed": true,
          "name": "newCustomerAddress",
          "type": "address"
        },
        {
          "indexed": false,
          "name": "credit",
          "type": "uint256"
        }
      ],
      "name": "chargeApproval",
      "type": "event"
    },
    {
      "anonymous": false,
      "inputs": [
        {
          "indexed": false,
          "name": "_fId",
          "type": "uint256"
        },
        {
          "indexed": false,
          "name": "_fIdProductName",
          "type": "string"
        },
        {
          "indexed": false,
          "name": "_fIdProductType",
          "type": "string"
        },
        {
          "indexed": false,
          "name": "_fIdProductNumber",
          "type": "uint256"
        },
        {
          "indexed": false,
          "name": "_fIdProductPrice",
          "type": "uint256"
        }
      ],
      "name": "foundProductId",
      "type": "event"
    },
    {
      "anonymous": false,
      "inputs": [
        {
          "indexed": true,
          "name": "_newOwnerAddress",
          "type": "address"
        },
        {
          "indexed": false,
          "name": "_price",
          "type": "uint256"
        }
      ],
      "name": "Approval",
      "type": "event"
    },
    {
      "anonymous": false,
      "inputs": [
        {
          "indexed": false,
          "name": "_withdraw",
          "type": "uint256"
        },
        {
          "indexed": false,
          "name": "_compensation",
          "type": "uint256"
        },
        {
          "indexed": true,
          "name": "_uAddress",
          "type": "address"
        }
      ],
      "name": "Cancellation",
      "type": "event"
    },
    {
      "anonymous": false,
      "inputs": [
        {
          "indexed": true,
          "name": "customerAddress",
          "type": "address"
        },
        {
          "indexed": false,
          "name": "allProductsPrice",
          "type": "uint256"
        }
      ],
      "name": "soldApproval",
      "type": "event"
    },
    {
      "anonymous": false,
      "inputs": [
        {
          "indexed": false,
          "name": "_zeroNum",
          "type": "uint256"
        }
      ],
      "name": "zeroNumber",
      "type": "event"
    },
    {
      "anonymous": false,
      "inputs": [
        {
          "indexed": true,
          "name": "userAddress",
          "type": "address"
        },
        {
          "indexed": false,
          "name": "userId",
          "type": "uint256"
        },
        {
          "indexed": false,
          "name": "userFirstName",
          "type": "string"
        },
        {
          "indexed": false,
          "name": "userLastName",
          "type": "string"
        }
      ],
      "name": "newUser",
      "type": "event"
    },
    {
      "constant": false,
      "inputs": [
        {
          "name": "_userFirstName",
          "type": "string"
        },
        {
          "name": "_userLastName",
          "type": "string"
        },
        {
          "name": "_userEmail",
          "type": "string"
        },
        {
          "name": "_userId",
          "type": "uint256"
        }
      ],
      "name": "createUser",
      "outputs": [],
      "payable": false,
      "stateMutability": "nonpayable",
      "type": "function"
    },
    {
      "constant": false,
      "inputs": [
        {
          "name": "_userId",
          "type": "uint256"
        },
        {
          "name": "_userAddress",
          "type": "address"
        }
      ],
      "name": "authenticateUser",
      "outputs": [],
      "payable": false,
      "stateMutability": "nonpayable",
      "type": "function"
    },
    {
      "constant": true,
      "inputs": [
        {
          "name": "_userAddress",
          "type": "address"
        }
      ],
      "name": "getUser",
      "outputs": [
        {
          "name": "",
          "type": "string"
        },
        {
          "name": "",
          "type": "string"
        },
        {
          "name": "",
          "type": "uint256"
        }
      ],
      "payable": false,
      "stateMutability": "view",
      "type": "function"
    },
    {
      "constant": false,
      "inputs": [
        {
          "name": "_productName",
          "type": "string"
        },
        {
          "name": "_pricePerNum",
          "type": "uint256"
        },
        {
          "name": "_productNumber",
          "type": "uint256"
        },
        {
          "name": "_productType",
          "type": "string"
        },
        {
          "name": "_productCode",
          "type": "uint256"
        }
      ],
      "name": "enterProductInformation",
      "outputs": [],
      "payable": true,
      "stateMutability": "payable",
      "type": "function"
    },
    {
      "constant": false,
      "inputs": [
        {
          "name": "_newproductCode",
          "type": "uint256"
        }
      ],
      "name": "acceptProductRequest",
      "outputs": [],
      "payable": false,
      "stateMutability": "nonpayable",
      "type": "function"
    },
    {
      "constant": false,
      "inputs": [
        {
          "name": "_productName",
          "type": "string"
        },
        {
          "name": "_productType",
          "type": "string"
        }
      ],
      "name": "getId",
      "outputs": [
        {
          "name": "",
          "type": "uint256"
        }
      ],
      "payable": false,
      "stateMutability": "nonpayable",
      "type": "function"
    },
    {
      "constant": true,
      "inputs": [],
      "name": "showId",
      "outputs": [
        {
          "name": "",
          "type": "uint256"
        }
      ],
      "payable": false,
      "stateMutability": "view",
      "type": "function"
    },
    {
      "constant": true,
      "inputs": [
        {
          "name": "_id",
          "type": "uint256"
        }
      ],
      "name": "showAllProducts",
      "outputs": [
        {
          "name": "",
          "type": "string"
        },
        {
          "name": "",
          "type": "string"
        },
        {
          "name": "",
          "type": "uint256"
        },
        {
          "name": "",
          "type": "uint256"
        }
      ],
      "payable": false,
      "stateMutability": "view",
      "type": "function"
    },
    {
      "constant": true,
      "inputs": [
        {
          "name": "_productId",
          "type": "uint256"
        }
      ],
      "name": "showCredit",
      "outputs": [
        {
          "name": "",
          "type": "uint256"
        }
      ],
      "payable": false,
      "stateMutability": "view",
      "type": "function"
    },
    {
      "constant": false,
      "inputs": [
        {
          "name": "_productId",
          "type": "uint256"
        }
      ],
      "name": "chargeAccount",
      "outputs": [],
      "payable": true,
      "stateMutability": "payable",
      "type": "function"
    },
    {
      "constant": false,
      "inputs": [
        {
          "name": "_productType",
          "type": "string"
        },
        {
          "name": "_productName",
          "type": "string"
        }
      ],
      "name": "queryProduct",
      "outputs": [],
      "payable": false,
      "stateMutability": "nonpayable",
      "type": "function"
    },
    {
      "constant": true,
      "inputs": [],
      "name": "showFoundIdInformation",
      "outputs": [
        {
          "name": "",
          "type": "uint256"
        },
        {
          "name": "",
          "type": "uint256"
        },
        {
          "name": "",
          "type": "uint256"
        },
        {
          "name": "",
          "type": "string"
        },
        {
          "name": "",
          "type": "string"
        }
      ],
      "payable": false,
      "stateMutability": "view",
      "type": "function"
    },
    {
      "constant": true,
      "inputs": [
        {
          "name": "_number",
          "type": "uint256"
        },
        {
          "name": "_foundId",
          "type": "uint256"
        }
      ],
      "name": "neededBalance",
      "outputs": [
        {
          "name": "",
          "type": "uint256"
        }
      ],
      "payable": false,
      "stateMutability": "view",
      "type": "function"
    },
    {
      "constant": false,
      "inputs": [
        {
          "name": "_number",
          "type": "uint256"
        },
        {
          "name": "_foundId",
          "type": "uint256"
        }
      ],
      "name": "checkBalanceAndSendtoContract",
      "outputs": [],
      "payable": true,
      "stateMutability": "payable",
      "type": "function"
    },
    {
      "constant": false,
      "inputs": [],
      "name": "checkTimeStamp",
      "outputs": [],
      "payable": false,
      "stateMutability": "nonpayable",
      "type": "function"
    },
    {
      "constant": false,
      "inputs": [
        {
          "name": "_foundId",
          "type": "uint256"
        }
      ],
      "name": "cancelRequest",
      "outputs": [],
      "payable": true,
      "stateMutability": "payable",
      "type": "function"
    },
    {
      "constant": false,
      "inputs": [
        {
          "name": "_foundId",
          "type": "uint256"
        }
      ],
      "name": "sendingEtherApproval",
      "outputs": [],
      "payable": true,
      "stateMutability": "payable",
      "type": "function"
    },
    {
      "constant": false,
      "inputs": [],
      "name": "checkDifference",
      "outputs": [],
      "payable": false,
      "stateMutability": "nonpayable",
      "type": "function"
    },
    {
      "constant": true,
      "inputs": [],
      "name": "showCheckDifference",
      "outputs": [
        {
          "name": "",
          "type": "uint256"
        }
      ],
      "payable": false,
      "stateMutability": "view",
      "type": "function"
    },
    {
      "constant": false,
      "inputs": [],
      "name": "sellAllCustomerProducts",
      "outputs": [],
      "payable": true,
      "stateMutability": "payable",
      "type": "function"
    },
    {
      "constant": true,
      "inputs": [
        {
          "name": "_id",
          "type": "uint256"
        }
      ],
      "name": "checkProductNumber",
      "outputs": [
        {
          "name": "",
          "type": "uint256"
        }
      ],
      "payable": false,
      "stateMutability": "view",
      "type": "function"
    }
  ],
  "bytecode": "0x608060405234801561001057600080fd5b5033600160006101000a81548173ffffffffffffffffffffffffffffffffffffffff021916908373ffffffffffffffffffffffffffffffffffffffff1602179055506147de806100616000396000f3fe60806040526004361061012a5760003560e01c80637c712f80116100ab578063d26a72281161006f578063d26a7228146109cd578063db04633214610bcd578063dd2ba64614610c08578063f764edb014610c1f578063fab2805314610c4d578063fd5d39f214610d7b5761012a565b80637c712f801461068b5780637e0261c814610695578063910f189014610808578063c313d62714610967578063c91e0e47146109955761012a565b806342e14e8c116100f257806342e14e8c1461034d5780635226e184146104bd578063522a3e23146104d45780636f77926b146104ff5780637b77d9171461063c5761012a565b806304aa68061461012f57806305a2294a1461018857806309f21096146101e35780633015394c1461020e57806339d902041461023c575b600080fd5b34801561013b57600080fd5b506101726004803603604081101561015257600080fd5b810190808035906020019092919080359060200190929190505050610dca565b6040518082815260200191505060405180910390f35b34801561019457600080fd5b506101e1600480360360408110156101ab57600080fd5b8101908080359060200190929190803573ffffffffffffffffffffffffffffffffffffffff169060200190929190505050610e16565b005b3480156101ef57600080fd5b506101f8611493565b6040518082815260200191505060405180910390f35b61023a6004803603602081101561022457600080fd5b810190808035906020019092919050505061149d565b005b34801561024857600080fd5b5061025161168d565b604051808681526020018581526020018481526020018060200180602001838103835285818151815260200191508051906020019080838360005b838110156102a757808201518184015260208101905061028c565b50505050905090810190601f1680156102d45780820380516001836020036101000a031916815260200191505b50838103825284818151815260200191508051906020019080838360005b8381101561030d5780820151818401526020810190506102f2565b50505050905090810190601f16801561033a5780820380516001836020036101000a031916815260200191505b5097505050505050505060405180910390f35b6104bb600480360360a081101561036357600080fd5b810190808035906020019064010000000081111561038057600080fd5b82018360208201111561039257600080fd5b803590602001918460018302840111640100000000831117156103b457600080fd5b91908080601f016020809104026020016040519081016040528093929190818152602001838380828437600081840152601f19601f82011690508083019250505050505050919291929080359060200190929190803590602001909291908035906020019064010000000081111561042b57600080fd5b82018360208201111561043d57600080fd5b8035906020019184600183028401116401000000008311171561045f57600080fd5b91908080601f016020809104026020016040519081016040528093929190818152602001838380828437600081840152601f19601f82011690508083019250505050505050919291929080359060200190929190505050611843565b005b3480156104c957600080fd5b506104d2611c35565b005b3480156104e057600080fd5b506104e9611ee7565b6040518082815260200191505060405180910390f35b34801561050b57600080fd5b5061054e6004803603602081101561052257600080fd5b81019080803573ffffffffffffffffffffffffffffffffffffffff169060200190929190505050611ff3565b604051808060200180602001848152602001838103835286818151815260200191508051906020019080838360005b8381101561059857808201518184015260208101905061057d565b50505050905090810190601f1680156105c55780820380516001836020036101000a031916815260200191505b50838103825285818151815260200191508051906020019080838360005b838110156105fe5780820151818401526020810190506105e3565b50505050905090810190601f16801561062b5780820380516001836020036101000a031916815260200191505b509550505050505060405180910390f35b34801561064857600080fd5b506106756004803603602081101561065f57600080fd5b8101908080359060200190929190505050612204565b6040518082815260200191505060405180910390f35b610693612224565b005b3480156106a157600080fd5b506107f2600480360360408110156106b857600080fd5b81019080803590602001906401000000008111156106d557600080fd5b8201836020820111156106e757600080fd5b8035906020019184600183028401116401000000008311171561070957600080fd5b91908080601f016020809104026020016040519081016040528093929190818152602001838380828437600081840152601f19601f8201169050808301925050505050505091929192908035906020019064010000000081111561076c57600080fd5b82018360208201111561077e57600080fd5b803590602001918460018302840111640100000000831117156107a057600080fd5b91908080601f016020809104026020016040519081016040528093929190818152602001838380828437600081840152601f19601f8201169050808301925050505050505091929192905050506125fe565b6040518082815260200191505060405180910390f35b34801561081457600080fd5b506109656004803603604081101561082b57600080fd5b810190808035906020019064010000000081111561084857600080fd5b82018360208201111561085a57600080fd5b8035906020019184600183028401116401000000008311171561087c57600080fd5b91908080601f016020809104026020016040519081016040528093929190818152602001838380828437600081840152601f19601f820116905080830192505050505050509192919290803590602001906401000000008111156108df57600080fd5b8201836020820111156108f157600080fd5b8035906020019184600183028401116401000000008311171561091357600080fd5b91908080601f016020809104026020016040519081016040528093929190818152602001838380828437600081840152601f19601f8201169050808301925050505050505091929192905050506128aa565b005b6109936004803603602081101561097d57600080fd5b8101908080359060200190929190505050612ca6565b005b6109cb600480360360408110156109ab57600080fd5b810190808035906020019092919080359060200190929190505050612fd6565b005b3480156109d957600080fd5b50610bcb600480360360808110156109f057600080fd5b8101908080359060200190640100000000811115610a0d57600080fd5b820183602082011115610a1f57600080fd5b80359060200191846001830284011164010000000083111715610a4157600080fd5b91908080601f016020809104026020016040519081016040528093929190818152602001838380828437600081840152601f19601f82011690508083019250505050505050919291929080359060200190640100000000811115610aa457600080fd5b820183602082011115610ab657600080fd5b80359060200191846001830284011164010000000083111715610ad857600080fd5b91908080601f016020809104026020016040519081016040528093929190818152602001838380828437600081840152601f19601f82011690508083019250505050505050919291929080359060200190640100000000811115610b3b57600080fd5b820183602082011115610b4d57600080fd5b80359060200191846001830284011164010000000083111715610b6f57600080fd5b91908080601f016020809104026020016040519081016040528093929190818152602001838380828437600081840152601f19601f820116905080830192505050505050509192919290803590602001909291905050506132ce565b005b348015610bd957600080fd5b50610c0660048036036020811015610bf057600080fd5b81019080803590602001909291905050506134e5565b005b348015610c1457600080fd5b50610c1d613a93565b005b610c4b60048036036020811015610c3557600080fd5b8101908080359060200190929190505050613ba3565b005b348015610c5957600080fd5b50610c8660048036036020811015610c7057600080fd5b8101908080359060200190929190505050613dfd565b604051808060200180602001858152602001848152602001838103835287818151815260200191508051906020019080838360005b83811015610cd6578082015181840152602081019050610cbb565b50505050905090810190601f168015610d035780820380516001836020036101000a031916815260200191505b50838103825286818151815260200191508051906020019080838360005b83811015610d3c578082015181840152602081019050610d21565b50505050905090810190601f168015610d695780820380516001836020036101000a031916815260200191505b50965050505050505060405180910390f35b348015610d8757600080fd5b50610db460048036036020811015610d9e57600080fd5b8101908080359060200190929190505050613fa4565b6040518082815260200191505060405180910390f35b6000610e0e66038d7ea4c68000610e008560086000878152602001908152602001600020600101546140ee90919063ffffffff16565b6140ee90919063ffffffff16565b905092915050565b600160009054906101000a900473ffffffffffffffffffffffffffffffffffffffff1673ffffffffffffffffffffffffffffffffffffffff163373ffffffffffffffffffffffffffffffffffffffff1614610ed9576040517f08c379a00000000000000000000000000000000000000000000000000000000081526004018080602001828103825260178152602001807f6f6e6c792062617a6161722063616e20646f207468617400000000000000000081525060200191505060405180910390fd5b610ee1614416565b601560008373ffffffffffffffffffffffffffffffffffffffff1673ffffffffffffffffffffffffffffffffffffffff1681526020019081526020016000206040518060a001604052908160008201548152602001600182018054600181600116156101000203166002900480601f016020809104026020016040519081016040528092919081815260200182805460018160011615610100020316600290048015610fce5780601f10610fa357610100808354040283529160200191610fce565b820191906000526020600020905b815481529060010190602001808311610fb157829003601f168201915b50505050508152602001600282018054600181600116156101000203166002900480601f0160208091040260200160405190810160405280929190818152602001828054600181600116156101000203166002900480156110705780601f1061104557610100808354040283529160200191611070565b820191906000526020600020905b81548152906001019060200180831161105357829003601f168201915b50505050508152602001600382018054600181600116156101000203166002900480601f0160208091040260200160405190810160405280929190818152602001828054600181600116156101000203166002900480156111125780601f106110e757610100808354040283529160200191611112565b820191906000526020600020905b8154815290600101906020018083116110f557829003601f168201915b505050505081526020016004820160009054906101000a900460ff1615151515815250509050601460008373ffffffffffffffffffffffffffffffffffffffff1673ffffffffffffffffffffffffffffffffffffffff168152602001908152602001600020601560008473ffffffffffffffffffffffffffffffffffffffff1673ffffffffffffffffffffffffffffffffffffffff16815260200190815260200160002060008201548160000155600182018160010190805460018160011615610100020316600290046111e7929190614447565b506002820181600201908054600181600116156101000203166002900461120f929190614447565b5060038201816003019080546001816001161561010002031660029004611237929190614447565b506004820160009054906101000a900460ff168160040160006101000a81548160ff0219169083151502179055509050508173ffffffffffffffffffffffffffffffffffffffff167f1c4b5d5618ea3ddc269aab805d8bc090308515e540547b7cec113f10082eb3c7601560008573ffffffffffffffffffffffffffffffffffffffff1673ffffffffffffffffffffffffffffffffffffffff16815260200190815260200160002060000154601560008673ffffffffffffffffffffffffffffffffffffffff1673ffffffffffffffffffffffffffffffffffffffff168152602001908152602001600020600101601560008773ffffffffffffffffffffffffffffffffffffffff1673ffffffffffffffffffffffffffffffffffffffff1681526020019081526020016000206002016040518084815260200180602001806020018381038352858181546001816001161561010002031660029004815260200191508054600181600116156101000203166002900480156113fa5780601f106113cf576101008083540402835291602001916113fa565b820191906000526020600020905b8154815290600101906020018083116113dd57829003601f168201915b505083810382528481815460018160011615610100020316600290048152602001915080546001816001161561010002031660029004801561147d5780601f106114525761010080835404028352916020019161147d565b820191906000526020600020905b81548152906001019060200180831161146057829003601f168201915b50509550505050505060405180910390a2505050565b6000600554905090565b600f5442106114ab57600080fd5b3073ffffffffffffffffffffffffffffffffffffffff16316010819055506114f260646114e460056010546140ee90919063ffffffff16565b61417490919063ffffffff16565b60118190555061150f6011546010546141be90919063ffffffff16565b601281905550600b60009054906101000a900473ffffffffffffffffffffffffffffffffffffffff1673ffffffffffffffffffffffffffffffffffffffff166108fc6012549081150290604051600060405180830381858888f1935050505015801561157f573d6000803e3d6000fd5b50600160009054906101000a900473ffffffffffffffffffffffffffffffffffffffff1673ffffffffffffffffffffffffffffffffffffffff166108fc6011549081150290604051600060405180830381858888f193505050501580156115ea573d6000803e3d6000fd5b50611616600a54600860008481526020019081526020016000206004015461420890919063ffffffff16565b60086000838152602001908152602001600020600401819055503373ffffffffffffffffffffffffffffffffffffffff167f57abe708ed2b51bf4f5fd0a2957491b08282e0e509ec1bdda72cd5b2573fb39d601254601154604051808381526020018281526020019250505060405180910390a250565b60008060006060806004546008600060045481526020019081526020016000206004015460086000600454815260200190815260200160002060010154600860006004548152602001908152602001600020600001600860006004548152602001908152602001600020600501818054600181600116156101000203166002900480601f01602080910402602001604051908101604052809291908181526020018280546001816001161561010002031660029004801561178f5780601f106117645761010080835404028352916020019161178f565b820191906000526020600020905b81548152906001019060200180831161177257829003601f168201915b50505050509150808054600181600116156101000203166002900480601f01602080910402602001604051908101604052809291908181526020018280546001816001161561010002031660029004801561182b5780601f106118005761010080835404028352916020019161182b565b820191906000526020600020905b81548152906001019060200180831161180e57829003601f168201915b50505050509050945094509450945094509091929394565b6000601560003373ffffffffffffffffffffffffffffffffffffffff1673ffffffffffffffffffffffffffffffffffffffff1681526020019081526020016000206000015414156118df576040517f08c379a000000000000000000000000000000000000000000000000000000000815260040180806020018281038252604c8152602001806145d1604c913960600191505060405180910390fd5b806006819055506118ee6144ce565b6007600083815260200190815260200160002060405180610100016040529081600082018054600181600116156101000203166002900480601f0160208091040260200160405190810160405280929190818152602001828054600181600116156101000203166002900480156119a65780601f1061197b576101008083540402835291602001916119a6565b820191906000526020600020905b81548152906001019060200180831161198957829003601f168201915b5050505050815260200160018201548152602001600282015481526020016003820154815260200160048201548152602001600582018054600181600116156101000203166002900480601f016020809104026020016040519081016040528092919081815260200182805460018160011615610100020316600290048015611a705780601f10611a4557610100808354040283529160200191611a70565b820191906000526020600020905b815481529060010190602001808311611a5357829003601f168201915b505050505081526020016006820160009054906101000a900473ffffffffffffffffffffffffffffffffffffffff1673ffffffffffffffffffffffffffffffffffffffff1673ffffffffffffffffffffffffffffffffffffffff1681526020016006820160149054906101000a900460ff16151515158152505090508060e0015115611afb57600080fd5b6040518061010001604052808781526020018681526020018381526020018581526020018581526020018481526020013373ffffffffffffffffffffffffffffffffffffffff16815260200160011515815250600760008481526020019081526020016000206000820151816000019080519060200190611b7d92919061452b565b506020820151816001015560408201518160020155606082015181600301556080820151816004015560a0820151816005019080519060200190611bc292919061452b565b5060c08201518160060160006101000a81548173ffffffffffffffffffffffffffffffffffffffff021916908373ffffffffffffffffffffffffffffffffffffffff16021790555060e08201518160060160146101000a81548160ff021916908315150217905550905050505050505050565b600160009054906101000a900473ffffffffffffffffffffffffffffffffffffffff1673ffffffffffffffffffffffffffffffffffffffff163373ffffffffffffffffffffffffffffffffffffffff1614611cf8576040517f08c379a00000000000000000000000000000000000000000000000000000000081526004018080602001828103825260178152602001807f6f6e6c792062617a6161722063616e20646f207468617400000000000000000081525060200191505060405180910390fd5b600f544210611ee5573073ffffffffffffffffffffffffffffffffffffffff1631601081905550611d486064611d3a60056010546140ee90919063ffffffff16565b61417490919063ffffffff16565b601181905550611d656011546010546141be90919063ffffffff16565b601281905550600b60009054906101000a900473ffffffffffffffffffffffffffffffffffffffff1673ffffffffffffffffffffffffffffffffffffffff166108fc6012549081150290604051600060405180830381858888f19350505050158015611dd5573d6000803e3d6000fd5b50600160009054906101000a900473ffffffffffffffffffffffffffffffffffffffff1673ffffffffffffffffffffffffffffffffffffffff166108fc6011549081150290604051600060405180830381858888f19350505050158015611e40573d6000803e3d6000fd5b50611e6e600a546008600060135481526020019081526020016000206004015461420890919063ffffffff16565b600860006013548152602001908152602001600020600401819055503373ffffffffffffffffffffffffffffffffffffffff167f57abe708ed2b51bf4f5fd0a2957491b08282e0e509ec1bdda72cd5b2573fb39d601254601154604051808381526020018281526020019250505060405180910390a25b565b6000611fee611f6e6064611f606046611f5266038d7ea4c68000611f4460086000600e5481526020019081526020016000206003015460086000600e548152602001908152602001600020600101546140ee90919063ffffffff16565b6140ee90919063ffffffff16565b6140ee90919063ffffffff16565b61417490919063ffffffff16565b611fc66064611fb8605f611faa66038d7ea4c6800060086000600e548152602001908152602001600020600301546140ee90919063ffffffff16565b6140ee90919063ffffffff16565b61417490919063ffffffff16565b60086000600e54815260200190815260200160002060010154026141be90919063ffffffff16565b905090565b6060806000601560008573ffffffffffffffffffffffffffffffffffffffff1673ffffffffffffffffffffffffffffffffffffffff168152602001908152602001600020600101601560008673ffffffffffffffffffffffffffffffffffffffff1673ffffffffffffffffffffffffffffffffffffffff168152602001908152602001600020600201601560008773ffffffffffffffffffffffffffffffffffffffff1673ffffffffffffffffffffffffffffffffffffffff16815260200190815260200160002060000154828054600181600116156101000203166002900480601f0160208091040260200160405190810160405280929190818152602001828054600181600116156101000203166002900480156121545780601f1061212957610100808354040283529160200191612154565b820191906000526020600020905b81548152906001019060200180831161213757829003601f168201915b50505050509250818054600181600116156101000203166002900480601f0160208091040260200160405190810160405280929190818152602001828054600181600116156101000203166002900480156121f05780601f106121c5576101008083540402835291602001916121f0565b820191906000526020600020905b8154815290600101906020018083116121d357829003601f168201915b505050505091509250925092509193909250565b600060086000838152602001908152602001600020600401549050919050565b600160009054906101000a900473ffffffffffffffffffffffffffffffffffffffff1673ffffffffffffffffffffffffffffffffffffffff163373ffffffffffffffffffffffffffffffffffffffff16146122e7576040517f08c379a00000000000000000000000000000000000000000000000000000000081526004018080602001828103825260178152602001807f6f6e6c792062617a6161722063616e20646f207468617400000000000000000081525060200191505060405180910390fd5b60006123ee61236e6064612360604661235266038d7ea4c6800061234460086000600e5481526020019081526020016000206003015460086000600e548152602001908152602001600020600101546140ee90919063ffffffff16565b6140ee90919063ffffffff16565b6140ee90919063ffffffff16565b61417490919063ffffffff16565b6123c660646123b8605f6123aa66038d7ea4c6800060086000600e548152602001908152602001600020600301546140ee90919063ffffffff16565b6140ee90919063ffffffff16565b61417490919063ffffffff16565b60086000600e54815260200190815260200160002060010154026141be90919063ffffffff16565b9050803414612448576040517f08c379a000000000000000000000000000000000000000000000000000000000815260040180806020018281038252604a815260200180614708604a913960600191505060405180910390fd5b60086000600e54815260200190815260200160002060060160009054906101000a900473ffffffffffffffffffffffffffffffffffffffff1673ffffffffffffffffffffffffffffffffffffffff166108fc3073ffffffffffffffffffffffffffffffffffffffff16319081150290604051600060405180830381858888f193505050501580156124dd573d6000803e3d6000fd5b5060086000600e54815260200190815260200160002060060160009054906101000a900473ffffffffffffffffffffffffffffffffffffffff1673ffffffffffffffffffffffffffffffffffffffff167f2da558498d6869f4f98c81c3f241ca4c91052ed884a64d4bc69ae7d0e4d28737826040518082815260200191505060405180910390a2600160009054906101000a900473ffffffffffffffffffffffffffffffffffffffff1660086000600e54815260200190815260200160002060060160006101000a81548173ffffffffffffffffffffffffffffffffffffffff021916908373ffffffffffffffffffffffffffffffffffffffff160217905550600060086000600e5481526020019081526020016000206001018190555050565b600080600190505b600254811161289e573373ffffffffffffffffffffffffffffffffffffffff166008600083815260200190815260200160002060060160009054906101000a900473ffffffffffffffffffffffffffffffffffffffff1673ffffffffffffffffffffffffffffffffffffffff16141561289157826040516020018082805190602001908083835b602083106126b0578051825260208201915060208101905060208303925061268d565b6001836020036101000a0380198251168184511680821785525050505050509050019150506040516020818303038152906040528051906020012060086000838152602001908152602001600020600501604051602001808280546001816001161561010002031660029004801561275f5780601f1061273d57610100808354040283529182019161275f565b820191906000526020600020905b81548152906001019060200180831161274b575b505091505060405160208183030381529060405280519060200120141561289057836040516020018082805190602001908083835b602083106127b75780518252602082019150602081019050602083039250612794565b6001836020036101000a038019825116818451168082178552505050505050905001915050604051602081830303815290604052805190602001206008600083815260200190815260200160002060000160405160200180828054600181600116156101000203166002900480156128665780601f10612844576101008083540402835291820191612866565b820191906000526020600020905b815481529060010190602001808311612852575b505091505060405160208183030381529060405280519060200120141561288f57806005819055505b5b5b8080600101915050612606565b50600554905092915050565b60006004819055506000600190505b6002548111612ae657826040516020018082805190602001908083835b602083106128f957805182526020820191506020810190506020830392506128d6565b6001836020036101000a038019825116818451168082178552505050505050905001915050604051602081830303815290604052805190602001206008600083815260200190815260200160002060050160405160200180828054600181600116156101000203166002900480156129a85780601f106129865761010080835404028352918201916129a8565b820191906000526020600020905b815481529060010190602001808311612994575b5050915050604051602081830303815290604052805190602001201415612ad957816040516020018082805190602001908083835b60208310612a0057805182526020820191506020810190506020830392506129dd565b6001836020036101000a03801982511681845116808217855250505050505090500191505060405160208183030381529060405280519060200120600860008381526020019081526020016000206000016040516020018082805460018160011615610100020316600290048015612aaf5780601f10612a8d576101008083540402835291820191612aaf565b820191906000526020600020905b815481529060010190602001808311612a9b575b5050915050604051602081830303815290604052805190602001201415612ad857806004819055505b5b80806001019150506128b9565b507fe4e214eb80ec53ba1c6135886cb9a17e99f2af43119406bb1b46f26e76c501ff6004546008600060045481526020019081526020016000206000016008600060045481526020019081526020016000206005016008600060045481526020019081526020016000206004015460086000600454815260200190815260200160002060010154604051808681526020018060200180602001858152602001848152602001838103835287818154600181600116156101000203166002900481526020019150805460018160011615610100020316600290048015612c0c5780601f10612be157610100808354040283529160200191612c0c565b820191906000526020600020905b815481529060010190602001808311612bef57829003601f168201915b5050838103825286818154600181600116156101000203166002900481526020019150805460018160011615610100020316600290048015612c8f5780601f10612c6457610100808354040283529160200191612c8f565b820191906000526020600020905b815481529060010190602001808311612c7257829003601f168201915b505097505050505050505060405180910390a15050565b600160009054906101000a900473ffffffffffffffffffffffffffffffffffffffff1673ffffffffffffffffffffffffffffffffffffffff163373ffffffffffffffffffffffffffffffffffffffff1614612d69576040517f08c379a00000000000000000000000000000000000000000000000000000000081526004018080602001828103825260178152602001807f6f6e6c792062617a6161722063616e20646f207468617400000000000000000081525060200191505060405180910390fd5b612de76064612dd96046612dcb66038d7ea4c68000612dbd6008600089815260200190815260200160002060030154600860008a8152602001908152602001600020600101546140ee90919063ffffffff16565b6140ee90919063ffffffff16565b6140ee90919063ffffffff16565b61417490919063ffffffff16565b3414612e3e576040517f08c379a000000000000000000000000000000000000000000000000000000000815260040180806020018281038252603c815260200180614687603c913960400191505060405180910390fd5b6008600082815260200190815260200160002060060160009054906101000a900473ffffffffffffffffffffffffffffffffffffffff1673ffffffffffffffffffffffffffffffffffffffff166108fc3073ffffffffffffffffffffffffffffffffffffffff16319081150290604051600060405180830381858888f19350505050158015612ed1573d6000803e3d6000fd5b506008600082815260200190815260200160002060060160009054906101000a900473ffffffffffffffffffffffffffffffffffffffff1673ffffffffffffffffffffffffffffffffffffffff167f1b1563535af3b8f4fc0903ed7e509f450bdbf4837658d708e3b6045c5df2f319612fbe6064612fb06046612fa266038d7ea4c68000612f94600860008b815260200190815260200160002060030154600860008c8152602001908152602001600020600101546140ee90919063ffffffff16565b6140ee90919063ffffffff16565b6140ee90919063ffffffff16565b61417490919063ffffffff16565b6040518082815260200191505060405180910390a250565b6000601560003373ffffffffffffffffffffffffffffffffffffffff1673ffffffffffffffffffffffffffffffffffffffff168152602001908152602001600020600001541415613072576040517f08c379a000000000000000000000000000000000000000000000000000000000815260040180806020018281038252604c8152602001806145d1604c913960600191505060405180910390fd5b81600a8190555033600b60006101000a81548173ffffffffffffffffffffffffffffffffffffffff021916908373ffffffffffffffffffffffffffffffffffffffff1602179055506008600082815260200190815260200160002060040154821115613129576040517f08c379a000000000000000000000000000000000000000000000000000000000815260040180806020018281038252602f81526020018061461d602f913960400191505060405180910390fd5b61316b66038d7ea4c6800061315d8460086000868152602001908152602001600020600101546140ee90919063ffffffff16565b6140ee90919063ffffffff16565b3373ffffffffffffffffffffffffffffffffffffffff163110156131da576040517f08c379a000000000000000000000000000000000000000000000000000000000815260040180806020018281038252603c815260200180614752603c913960400191505060405180910390fd5b61321c66038d7ea4c6800061320e8460086000868152602001908152602001600020600101546140ee90919063ffffffff16565b6140ee90919063ffffffff16565b3414613273576040517f08c379a000000000000000000000000000000000000000000000000000000000815260040180806020018281038252602581526020018061478e6025913960400191505060405180910390fd5b61329e600a5460086000848152602001908152602001600020600401546141be90919063ffffffff16565b6008600083815260200190815260200160002060040181905550611c204201600f81905550806013819055505050565b600160009054906101000a900473ffffffffffffffffffffffffffffffffffffffff1673ffffffffffffffffffffffffffffffffffffffff163373ffffffffffffffffffffffffffffffffffffffff161415613392576040517f08c379a00000000000000000000000000000000000000000000000000000000081526004018080602001828103825260168152602001807f6f6e6c792075736572732063616e20646f20746861740000000000000000000081525060200191505060405180910390fd5b6000601460003373ffffffffffffffffffffffffffffffffffffffff1673ffffffffffffffffffffffffffffffffffffffff16815260200190815260200160002090508060040160009054906101000a900460ff16156133f157600080fd5b6040518060a0016040528083815260200186815260200185815260200184815260200160011515815250601460003373ffffffffffffffffffffffffffffffffffffffff1673ffffffffffffffffffffffffffffffffffffffff16815260200190815260200160002060008201518160000155602082015181600101908051906020019061348092919061452b565b50604082015181600201908051906020019061349d92919061452b565b5060608201518160030190805190602001906134ba92919061452b565b5060808201518160040160006101000a81548160ff0219169083151502179055509050505050505050565b600160009054906101000a900473ffffffffffffffffffffffffffffffffffffffff1673ffffffffffffffffffffffffffffffffffffffff163373ffffffffffffffffffffffffffffffffffffffff16146135a8576040517f08c379a00000000000000000000000000000000000000000000000000000000081526004018080602001828103825260178152602001807f6f6e6c792062617a6161722063616e20646f207468617400000000000000000081525060200191505060405180910390fd5b6135be600160025461420890919063ffffffff16565b6002819055506135cc6144ce565b60086000600254815260200190815260200160002060405180610100016040529081600082018054600181600116156101000203166002900480601f0160208091040260200160405190810160405280929190818152602001828054600181600116156101000203166002900480156136865780601f1061365b57610100808354040283529160200191613686565b820191906000526020600020905b81548152906001019060200180831161366957829003601f168201915b5050505050815260200160018201548152602001600282015481526020016003820154815260200160048201548152602001600582018054600181600116156101000203166002900480601f0160208091040260200160405190810160405280929190818152602001828054600181600116156101000203166002900480156137505780601f1061372557610100808354040283529160200191613750565b820191906000526020600020905b81548152906001019060200180831161373357829003601f168201915b505050505081526020016006820160009054906101000a900473ffffffffffffffffffffffffffffffffffffffff1673ffffffffffffffffffffffffffffffffffffffff1673ffffffffffffffffffffffffffffffffffffffff1681526020016006820160149054906101000a900460ff1615151515815250509050600760008381526020019081526020016000206008600060025481526020019081526020016000206000820181600001908054600181600116156101000203166002900461381b929190614447565b50600182015481600101556002820154816002015560038201548160030155600482015481600401556005820181600501908054600181600116156101000203166002900461386b929190614447565b506006820160009054906101000a900473ffffffffffffffffffffffffffffffffffffffff168160060160006101000a81548173ffffffffffffffffffffffffffffffffffffffff021916908373ffffffffffffffffffffffffffffffffffffffff1602179055506006820160149054906101000a900460ff168160060160146101000a81548160ff02191690831515021790555090505060086000600254815260200190815260200160002060060160009054906101000a900473ffffffffffffffffffffffffffffffffffffffff1673ffffffffffffffffffffffffffffffffffffffff166007600084815260200190815260200160002060060160009054906101000a900473ffffffffffffffffffffffffffffffffffffffff1673ffffffffffffffffffffffffffffffffffffffff167f3e55a125592306e24e26eafea40a4603ab7fd9c8cb8a8cdf95ee41a3b7592278600860006002548152602001908152602001600020600001600860006002548152602001908152602001600020600401546040518080602001838152602001828103825284818154600181600116156101000203166002900481526020019150805460018160011615610100020316600290048015613a805780601f10613a5557610100808354040283529160200191613a80565b820191906000526020600020905b815481529060010190602001808311613a6357829003601f168201915b5050935050505060405180910390a35050565b6000600190505b6002548111613b6757600160009054906101000a900473ffffffffffffffffffffffffffffffffffffffff1673ffffffffffffffffffffffffffffffffffffffff166008600083815260200190815260200160002060060160009054906101000a900473ffffffffffffffffffffffffffffffffffffffff1673ffffffffffffffffffffffffffffffffffffffff1614158015613b4d575060006008600083815260200190815260200160002060040154145b15613b5a5780600e819055505b8080600101915050613a9a565b507fa2856a245a3a5a05aca407bedc10a9ca79a0f44de30cb4b11e9359fb84949dbe600e546040518082815260200191505060405180910390a1565b600f544210613bb157600080fd5b3373ffffffffffffffffffffffffffffffffffffffff16600b60009054906101000a900473ffffffffffffffffffffffffffffffffffffffff1673ffffffffffffffffffffffffffffffffffffffff1614613c57576040517f08c379a000000000000000000000000000000000000000000000000000000000815260040180806020018281038252603b81526020018061464c603b913960400191505060405180910390fd5b66038d7ea4c68000600a54600860008481526020019081526020016000206001015402023073ffffffffffffffffffffffffffffffffffffffff163114613ce9576040517f08c379a00000000000000000000000000000000000000000000000000000000081526004018080602001828103825260248152602001806146e46024913960400191505060405180910390fd5b600160009054906101000a900473ffffffffffffffffffffffffffffffffffffffff1673ffffffffffffffffffffffffffffffffffffffff166108fc3073ffffffffffffffffffffffffffffffffffffffff16319081150290604051600060405180830381858888f19350505050158015613d68573d6000803e3d6000fd5b503373ffffffffffffffffffffffffffffffffffffffff167f1e4109814b4fb1210f81ef6540a9bf7e5834ff79536859d16d6398f0e417c44f613de566038d7ea4c68000613dd7600a5460086000888152602001908152602001600020600101546140ee90919063ffffffff16565b6140ee90919063ffffffff16565b6040518082815260200191505060405180910390a250565b606080600080600860008681526020019081526020016000206005016008600087815260200190815260200160002060000160086000888152602001908152602001600020600401546008600089815260200190815260200160002060010154838054600181600116156101000203166002900480601f016020809104026020016040519081016040528092919081815260200182805460018160011615610100020316600290048015613ef25780601f10613ec757610100808354040283529160200191613ef2565b820191906000526020600020905b815481529060010190602001808311613ed557829003601f168201915b50505050509350828054600181600116156101000203166002900480601f016020809104026020016040519081016040528092919081815260200182805460018160011615610100020316600290048015613f8e5780601f10613f6357610100808354040283529160200191613f8e565b820191906000526020600020905b815481529060010190602001808311613f7157829003601f168201915b5050505050925093509350935093509193509193565b6000600160009054906101000a900473ffffffffffffffffffffffffffffffffffffffff1673ffffffffffffffffffffffffffffffffffffffff163373ffffffffffffffffffffffffffffffffffffffff1614614069576040517f08c379a00000000000000000000000000000000000000000000000000000000081526004018080602001828103825260178152602001807f6f6e6c792062617a6161722063616e20646f207468617400000000000000000081525060200191505060405180910390fd5b6140e760646140d960466140cb66038d7ea4c680006140bd600860008a815260200190815260200160002060030154600860008b8152602001908152602001600020600101546140ee90919063ffffffff16565b6140ee90919063ffffffff16565b6140ee90919063ffffffff16565b61417490919063ffffffff16565b9050919050565b600080831415614101576000905061416e565b600082840290508284828161411257fe5b0414614169576040517f08c379a00000000000000000000000000000000000000000000000000000000081526004018080602001828103825260218152602001806146c36021913960400191505060405180910390fd5b809150505b92915050565b60006141b683836040518060400160405280601a81526020017f536166654d6174683a206469766973696f6e206279207a65726f000000000000815250614290565b905092915050565b600061420083836040518060400160405280601e81526020017f536166654d6174683a207375627472616374696f6e206f766572666c6f770000815250614356565b905092915050565b600080828401905083811015614286576040517f08c379a000000000000000000000000000000000000000000000000000000000815260040180806020018281038252601b8152602001807f536166654d6174683a206164646974696f6e206f766572666c6f77000000000081525060200191505060405180910390fd5b8091505092915050565b6000808311829061433c576040517f08c379a00000000000000000000000000000000000000000000000000000000081526004018080602001828103825283818151815260200191508051906020019080838360005b838110156143015780820151818401526020810190506142e6565b50505050905090810190601f16801561432e5780820380516001836020036101000a031916815260200191505b509250505060405180910390fd5b50600083858161434857fe5b049050809150509392505050565b6000838311158290614403576040517f08c379a00000000000000000000000000000000000000000000000000000000081526004018080602001828103825283818151815260200191508051906020019080838360005b838110156143c85780820151818401526020810190506143ad565b50505050905090810190601f1680156143f55780820380516001836020036101000a031916815260200191505b509250505060405180910390fd5b5060008385039050809150509392505050565b6040518060a00160405280600081526020016060815260200160608152602001606081526020016000151581525090565b828054600181600116156101000203166002900490600052602060002090601f016020900481019282601f1061448057805485556144bd565b828001600101855582156144bd57600052602060002091601f016020900482015b828111156144bc5782548255916001019190600101906144a1565b5b5090506144ca91906145ab565b5090565b604051806101000160405280606081526020016000815260200160008152602001600081526020016000815260200160608152602001600073ffffffffffffffffffffffffffffffffffffffff1681526020016000151581525090565b828054600181600116156101000203166002900490600052602060002090601f016020900481019282601f1061456c57805160ff191683800117855561459a565b8280016001018555821561459a579182015b8281111561459957825182559160200191906001019061457e565b5b5090506145a791906145ab565b5090565b6145cd91905b808211156145c95760008160009055506001016145b1565b5090565b9056fe596f75206d75737420726567697374657220696e206f7572206d61726b65742c207468656e20796f752063616e20656e74657220796f75722070726f6475637420696e666f726d6174696f6e536f7272792e20576520686176656e277420656e6f756768206e756d626572206f6620746869732070726f64756374796f752073686f756c64206265207468652070726f647563742773206f776e657220746f20617070726f76652073656e64696e672065746865722e42617a6161722073686f756c642073656e6420657468657220617320657175616c2061732075736572206372656469747320746f2068696d2f686572536166654d6174683a206d756c7469706c69636174696f6e206f766572666c6f77536f7272792120596f75206469646e27742073656e6420656e6f756768204d6f6e657921416c6c20637573746f6d657227732070726f64756374732068617665206265656e20736f6c642c2062617a6161722073686f756c642073656e642074686520646966666572656e63652e536f7272792120596f7520686176656e277420656e6f756768204d6f6e65792e2043686172676520796f7572204163636f756e7420706c6561736521596f75204d5553542073656e6420657468657220617320657175616c206173207072696365a165627a7a723058205efdfe239fb607de47c5979a6fe42cdd43f9352c7aec813a7614fe400115d6490029",
  "source": "pragma solidity >= 0.5.0;\n//pragma experimental ABIEncoderV2;\n\nimport \"./SafeMath.sol\";\n\n\ncontract barterMarket {\n    \n    using SafeMath for uint;\n    /*****************************add user variables****************************************/\n    struct User {\n    uint256 id;\n    string firstName;\n    string lastName;\n    string email;\n    // other stuff\n\n    bool set; // This boolean is used to differentiate between unset and zero struct values\n    }\n    uint count;\n    /*****************************add product variables************************************/\n    address payable bazaar;\n    uint counter;\n    address productOwnerAddress;\n    uint foundId;\n    uint yourProductId;\n    struct Product {\n        string productName;\n        uint pricePerNum;\n        uint productCode;\n        uint firstProductNumber;\n        uint productNumber;\n        string productType;\n        address payable productOwner;\n        bool productSet;\n    // other stuff\n    }\n    \n    uint newProductCode;\n    mapping(uint => Product) reqProducts;\n    mapping(uint => Product) AllProducts;\n    mapping (address => uint) ownerProductCount;\n    event newProduct(address indexed newOwnerAddress, string newProductName, address indexed newProductOwner, uint newProductNumber);\n    /****************************charge account variables***********************************/\n    event chargeApproval(address indexed newCustomerAddress, uint credit);\n    event foundProductId(uint _fId, string _fIdProductName, string _fIdProductType, uint _fIdProductNumber, uint _fIdProductPrice);\n    /*****************************buy by ether variables************************************/\n    uint number;\n    address payable buyer;\n    event Approval(address indexed _newOwnerAddress, uint _price);\n    event Cancellation(uint _withdraw, uint _compensation, address indexed _uAddress);\n    mapping(address => uint) newBazaarProduct;\n    /*****************************sell product variables************************************/\n    event soldApproval(address indexed customerAddress, uint allProductsPrice);\n    uint productPrice;\n    uint zeroNum;\n    event zeroNumber(uint _zeroNum);\n    uint timeStamp;\n    uint contractBalance;\n    uint compensation;\n    uint withdraw;\n    uint checkId;\n    /*****************************constructor & modifier************************************/\n    constructor() public {\n        bazaar = msg.sender;    \n    }\n\n    modifier isBazaar() {\n        require(msg.sender == bazaar, \"only bazaar can do that\");\n        _;\n    }\n    \n    modifier isNotBazaar() {\n        require(msg.sender != bazaar, \"only users can do that\");\n        _;\n    }\n    \n    /********************************How to add new user************************************/\n    mapping(address => User) users;    \n    mapping(address => User) AllUsers;\n    \n    event newUser(address indexed userAddress, uint userId, string userFirstName, string userLastName);\n    function createUser(string memory _userFirstName, string memory _userLastName, string memory _userEmail, uint _userId) public isNotBazaar{\n        \n        User storage user = users[msg.sender];\n        \n      //  count = count.add(1);\n        \n        require(!user.set);\n        users[msg.sender] = User({\n        id: _userId,\n        firstName: _userFirstName,\n        lastName: _userLastName,\n\temail: _userEmail,\n        set: true\n    });\n    }\n\n    function authenticateUser(uint _userId, address _userAddress) public isBazaar{\n\n\tUser memory allUsers = AllUsers[_userAddress]; \n\n        AllUsers[_userAddress] = users[_userAddress];\n\n        emit newUser(_userAddress, AllUsers[_userAddress].id, AllUsers[_userAddress].firstName, AllUsers[_userAddress].lastName);\n    }\n     \n    function getUser(address _userAddress) view public returns(string memory, string memory, uint){\n        \n        return ((AllUsers[_userAddress]).firstName, AllUsers[_userAddress].lastName, AllUsers[_userAddress].id);\n        \n    }\n    /*******************************How to add new product***********************************/\n    function enterProductInformation(string memory _productName, uint _pricePerNum, \n                                     uint _productNumber, string memory _productType, uint _productCode) payable public{\n        \n        require(AllUsers[msg.sender].id != 0, \"You must register in our market, then you can enter your product information\");\n\n        newProductCode = _productCode;\n        Product memory product = reqProducts[_productCode];\n        require(!product.productSet);\n        \n        reqProducts[_productCode] = Product({\n        productName: _productName,\n        productCode: _productCode,\n        firstProductNumber: _productNumber,\n        productNumber: _productNumber,\n        productType: _productType,\n        pricePerNum: _pricePerNum,\n        productOwner: msg.sender,\n        productSet: true\n    });\n    }\n    \n    function acceptProductRequest(uint _newproductCode) public isBazaar{\n        \n        counter = counter.add(1);\n        Product memory allProduct = AllProducts[counter];\n        \n        AllProducts[counter] = reqProducts[_newproductCode];\n       // ownerProductCount[productOwnerAddress] = ownerProductCount[productOwnerAddress].add(1);\n        emit newProduct(reqProducts[_newproductCode].productOwner, AllProducts[counter].productName, AllProducts[counter].productOwner, AllProducts[counter].productNumber);\n\n    }\n   \n    function getId(string memory _productName, string memory _productType) public returns(uint){\n        \n        //require(AllProducts[counter].productOwner ==  msg.sender);\n        for (uint i = 1; i <= counter; i++){\n            if (AllProducts[i].productOwner ==  msg.sender){\n                if ((keccak256(abi.encodePacked(AllProducts[i].productType))) == keccak256(abi.encodePacked(_productType))){\n                    if ((keccak256(abi.encodePacked(AllProducts[i].productName))) == keccak256(abi.encodePacked(_productName))){\n                        yourProductId = i;\n                    }\n                }\n            }\n        }\n\t    return yourProductId;\n    }\n\n    function showId() public view returns(uint){\n\n\t    return yourProductId;\n    }\t  \n    \n    function showAllProducts(uint _id) public view returns(string memory, string memory, uint, uint){\n        \n        return (AllProducts[_id].productType, AllProducts[_id].productName, AllProducts[_id].productNumber, AllProducts[_id].pricePerNum);\n    }\n    /********************************How to charge account***********************************/\n    function showCredit(uint _productId) public view isBazaar returns(uint){\n        return ((AllProducts[_productId].pricePerNum).mul(AllProducts[_productId].firstProductNumber).mul(10**15 wei).mul(70).div(100));\n    }\n    function chargeAccount(uint _productId) public payable isBazaar{\n        \n        require(msg.value ==  ((AllProducts[_productId].pricePerNum).mul(AllProducts[_productId].firstProductNumber).mul(10**15 wei).mul(70).div(100)), \"Bazaar should send ether as equal as user credits to him/her\");\n        AllProducts[_productId].productOwner.transfer(address(this).balance);\n        emit chargeApproval(AllProducts[_productId].productOwner, ((AllProducts[_productId].pricePerNum).mul(AllProducts[_productId].firstProductNumber).mul(10**15 wei).mul(70).div(100)));\n    }\n        \n    /*******************************How to query a product***********************************/\n    function queryProduct(string memory _productType, string memory _productName) public{\n        \n        foundId = 0;\n        for (uint i = 1; i<= counter; i++){\n            if ((keccak256(abi.encodePacked(AllProducts[i].productType))) == keccak256(abi.encodePacked(_productType))){\n                if ((keccak256(abi.encodePacked(AllProducts[i].productName))) == keccak256(abi.encodePacked(_productName))){\n                    foundId = i;\n                }\n            }\n        }\n        \n        emit foundProductId(foundId, AllProducts[foundId].productName, AllProducts[foundId].productType, AllProducts[foundId].productNumber, AllProducts[foundId].pricePerNum);\n    }\n    \n  /*  function showFoundId() public view returns(uint){\n        \n        return foundId;\n    }*/\n    \n    function showFoundIdInformation() public view returns(uint, uint, uint, string memory, string memory){\n        \n        return (foundId, AllProducts[foundId].productNumber, AllProducts[foundId].pricePerNum, AllProducts[foundId].productName, AllProducts[foundId].productType);\n    }\n    /********************************How to buy by ether************************************/\n    function neededBalance(uint _number, uint _foundId) public view returns(uint){\n\n        return ((AllProducts[_foundId].pricePerNum).mul(_number).mul(10**15 wei));\n    }\n\n    function checkBalanceAndSendtoContract(uint _number, uint _foundId) payable external{\n\n        require(AllUsers[msg.sender].id != 0, \"You must register in our market, then you can enter your product information\");\n        \n        number = _number;\n        buyer = msg.sender;\n        require(_number <= (AllProducts[_foundId].productNumber), \"Sorry. We haven't enough number of this product\");\n        require(msg.sender.balance >= ((AllProducts[_foundId].pricePerNum).mul(_number).mul(10**15 wei)) , \"Sorry! You haven't enough Money. Charge your Account please!\");\n        require(msg.value == ((AllProducts[_foundId].pricePerNum).mul(_number).mul(10**15 wei)), \"You MUST send ether as equal as price\");\n        AllProducts[_foundId].productNumber =  AllProducts[_foundId].productNumber.sub(number);\n        timeStamp = now + 2 hours;\n\tcheckId = _foundId;\n    }\n\n    function checkTimeStamp() public isBazaar{\n\n\n        if (now >= timeStamp){\n\t\tcontractBalance = address(this).balance;\n        \tcompensation = (contractBalance.mul(5).div(100));\n        \twithdraw = contractBalance.sub(compensation);\n        \tbuyer.transfer(withdraw);\n        \tbazaar.transfer(compensation);\n        \tAllProducts[checkId].productNumber =  AllProducts[checkId].productNumber.add(number);  \n        \temit Cancellation(withdraw, compensation, msg.sender);\n\t}\n    }\n\n    function cancelRequest(uint _foundId) payable external {\n\n\trequire(now < timeStamp);\n\tcontractBalance = address(this).balance;\n        compensation = (contractBalance.mul(5).div(100));\n        withdraw = contractBalance.sub(compensation);\n        buyer.transfer(withdraw);\n        bazaar.transfer(compensation);\n        AllProducts[_foundId].productNumber =  AllProducts[_foundId].productNumber.add(number);  \n        emit Cancellation(withdraw, compensation, msg.sender);\n    }\n   \n    function sendingEtherApproval(uint _foundId) payable external {\n\n\trequire(now < timeStamp);       \n        require(buyer == msg.sender, \"you should be the product's owner to approve sending ether.\");\n        require(address(this).balance == ((AllProducts[_foundId].pricePerNum)*(number)*(10**15 wei)), \"Sorry! You didn't send enough Money!\");\n        bazaar.transfer(address(this).balance);\n        emit Approval(msg.sender, (AllProducts[_foundId].pricePerNum).mul(number).mul(10**15 wei));\n\n    }\n    /********************************How to sell by ether**********************************/\n    function checkDifference() public{\n\n        for (uint i = 1; i<= counter; i++){            \n            if ((AllProducts[i].productOwner != bazaar) && (AllProducts[i].productNumber == 0)){                \n                zeroNum = i;\n\t    }\n\t}\n        emit zeroNumber(zeroNum);\n    }\n\n    function showCheckDifference() public view returns(uint){\n\n\treturn ((AllProducts[zeroNum].pricePerNum)*(AllProducts[zeroNum].firstProductNumber).mul(10**15 wei).mul(95).div(100)).sub \n                ((AllProducts[zeroNum].pricePerNum).mul(AllProducts[zeroNum].firstProductNumber).mul(10**15 wei).mul(70).div(100));\n    }\n\n    function sellAllCustomerProducts() payable external isBazaar{\n                \n                uint productPrice = ((AllProducts[zeroNum].pricePerNum)*(AllProducts[zeroNum].firstProductNumber).mul(10**15 wei).mul(95).div(100)).sub \n                ((AllProducts[zeroNum].pricePerNum).mul(AllProducts[zeroNum].firstProductNumber).mul(10**15 wei).mul(70).div(100));\n                require(msg.value == productPrice, \n                \"All customer's products have been sold, bazaar should send the difference.\");\n                AllProducts[zeroNum].productOwner.transfer(address(this).balance);\n                emit soldApproval(AllProducts[zeroNum].productOwner, productPrice);\n\t\tAllProducts[zeroNum].productOwner = bazaar;\n \t\tAllProducts[zeroNum].pricePerNum = 0;\n\n    }\n\n    function checkProductNumber(uint _id) public view returns(uint){\n\t\n\treturn AllProducts[_id].productNumber;\n    }\n    //\"behnaz\",\"kavoosi\" //\"Pak\",\"1\",\"1000\",\"Milk\", \"1256\" //2800000000000000000\n    //\"mohamad\",\"kavoosi\" //\"farkhonde\",\"1\",\"500\",\"biscuit\", \"3542\" //350000000000000000\n    \n    \n}\n",
  "sourcePath": "/home/behnaz/solidity-experiments/my contracts/Barter Market/contracts/barterMarket.sol",
  "compiler": {
    "name": "solc",
    "version": "0.5.8+commit.23d335f2.Emscripten.clang"
  },
  "schemaVersion": "3.0.16",
  "updatedAt": "2019-12-16T16:19:44.771Z",
  "devdoc": {
    "methods": {}
  },
  "userdoc": {
    "methods": {
      "checkDifference()": {
        "notice": "******************************How to sell by ether*********************************"
      },
      "constructor": "***************************constructor & modifier***********************************",
      "enterProductInformation(string,uint256,uint256,string,uint256)": {
        "notice": "*****************************How to add new product**********************************"
      },
      "neededBalance(uint256,uint256)": {
        "notice": "******************************How to buy by ether***********************************"
      },
      "queryProduct(string,string)": {
        "notice": "*****************************How to query a product**********************************"
      },
      "showCredit(uint256)": {
        "notice": "******************************How to charge account**********************************"
      }
    }
  }
}